{
    "contractName": "StateConnector",
    "abi": [
        {
            "inputs": [],
            "stateMutability": "nonpayable",
            "type": "constructor"
        },
        {
            "anonymous": false,
            "inputs": [
                {
                    "indexed": false,
                    "internalType": "uint256",
                    "name": "timestamp",
                    "type": "uint256"
                },
                {
                    "indexed": false,
                    "internalType": "uint256",
                    "name": "instructions",
                    "type": "uint256"
                },
                {
                    "indexed": false,
                    "internalType": "bytes32",
                    "name": "txId",
                    "type": "bytes32"
                }
            ],
            "name": "AttestationRequest",
            "type": "event"
        },
        {
            "inputs": [],
            "name": "ATTESTATION_REQUEST_FEE",
            "outputs": [
                {
                    "internalType": "uint256",
                    "name": "",
                    "type": "uint256"
                }
            ],
            "stateMutability": "view",
            "type": "function"
        },
        {
            "inputs": [],
            "name": "BUFFER_TIMESTAMP_OFFSET",
            "outputs": [
                {
                    "internalType": "uint256",
                    "name": "",
                    "type": "uint256"
                }
            ],
            "stateMutability": "view",
            "type": "function"
        },
        {
            "inputs": [],
            "name": "BUFFER_WINDOW",
            "outputs": [
                {
                    "internalType": "uint256",
                    "name": "",
                    "type": "uint256"
                }
            ],
            "stateMutability": "view",
            "type": "function"
        },
        {
            "inputs": [],
            "name": "TOTAL_STORED_BUFFERS",
            "outputs": [
                {
                    "internalType": "uint256",
                    "name": "",
                    "type": "uint256"
                }
            ],
            "stateMutability": "view",
            "type": "function"
        },
        {
            "inputs": [],
            "name": "TOTAL_STORED_PROOFS",
            "outputs": [
                {
                    "internalType": "uint256",
                    "name": "",
                    "type": "uint256"
                }
            ],
            "stateMutability": "view",
            "type": "function"
        },
        {
            "inputs": [
                {
                    "internalType": "address",
                    "name": "",
                    "type": "address"
                }
            ],
            "name": "buffers",
            "outputs": [
                {
                    "internalType": "uint256",
                    "name": "latestVote",
                    "type": "uint256"
                }
            ],
            "stateMutability": "view",
            "type": "function"
        },
        {
            "inputs": [
                {
                    "internalType": "uint256",
                    "name": "bufferNumber",
                    "type": "uint256"
                },
                {
                    "internalType": "bytes32",
                    "name": "merkleHash",
                    "type": "bytes32"
                }
            ],
            "name": "finaliseRound",
            "outputs": [],
            "stateMutability": "nonpayable",
            "type": "function"
        },
        {
            "inputs": [
                {
                    "internalType": "uint256",
                    "name": "bufferNumber",
                    "type": "uint256"
                }
            ],
            "name": "getAttestation",
            "outputs": [
                {
                    "internalType": "bytes32",
                    "name": "_unmaskedMerkleHash",
                    "type": "bytes32"
                }
            ],
            "stateMutability": "view",
            "type": "function"
        },
        {
            "inputs": [
                {
                    "internalType": "uint256",
                    "name": "",
                    "type": "uint256"
                }
            ],
            "name": "merkleRoots",
            "outputs": [
                {
                    "internalType": "bytes32",
                    "name": "",
                    "type": "bytes32"
                }
            ],
            "stateMutability": "view",
            "type": "function"
        },
        {
            "inputs": [
                {
                    "internalType": "uint256",
                    "name": "instructions",
                    "type": "uint256"
                },
                {
                    "internalType": "bytes32",
                    "name": "txId",
                    "type": "bytes32"
                }
            ],
            "name": "requestAttestations",
            "outputs": [],
            "stateMutability": "payable",
            "type": "function"
        },
        {
            "inputs": [
                {
                    "internalType": "uint256",
                    "name": "bufferNumber",
                    "type": "uint256"
                },
                {
                    "internalType": "bytes32",
                    "name": "maskedMerkleHash",
                    "type": "bytes32"
                },
                {
                    "internalType": "bytes32",
                    "name": "committedRandom",
                    "type": "bytes32"
                },
                {
                    "internalType": "bytes32",
                    "name": "revealedRandom",
                    "type": "bytes32"
                }
            ],
            "name": "submitAttestation",
            "outputs": [
                {
                    "internalType": "bool",
                    "name": "_initialBufferSlot",
                    "type": "bool"
                }
            ],
            "stateMutability": "nonpayable",
            "type": "function"
        },
        {
            "inputs": [],
            "name": "totalBuffers",
            "outputs": [
                {
                    "internalType": "uint256",
                    "name": "",
                    "type": "uint256"
                }
            ],
            "stateMutability": "view",
            "type": "function"
        }
    ],
    "bytecode": "608060405234801561001057600080fd5b5061052c806100206000396000f3fe6080604052600436106100a75760003560e01c80637c3931c6116100645780637c3931c614610184578063cfd1fdad146101a9578063eaebf6d3146101f9578063ec7424a014610229578063f417c9d81461023e578063f5f59a4a14610253576100a7565b806329be4db2146100ac5780634b8a125f146100e85780635f8c940d146100fd5780636eddd9b41461011257806371c5ecb11461012757806371e2457414610151575b600080fd5b3480156100b857600080fd5b506100d6600480360360208110156100cf57600080fd5b5035610268565b60408051918252519081900360200190f35b3480156100f457600080fd5b506100d6610342565b34801561010957600080fd5b506100d661034a565b34801561011e57600080fd5b506100d661034f565b34801561013357600080fd5b506100d66004803603602081101561014a57600080fd5b503561035b565b34801561015d57600080fd5b506100d66004803603602081101561017457600080fd5b50356001600160a01b0316610373565b6101a76004803603604081101561019a57600080fd5b5080359060200135610388565b005b3480156101b557600080fd5b506101e5600480360360808110156101cc57600080fd5b50803590602081013590604081013590606001356103f8565b604080519115158252519081900360200190f35b34801561020557600080fd5b506101a76004803603604081101561021c57600080fd5b5080359060200135610496565b34801561023557600080fd5b506100d66104e5565b34801561024a57600080fd5b506100d66104eb565b34801561025f57600080fd5b506100d66104f1565b3360009081526020819052604081206009015482111561028757600080fd5b33600090815260208190526040812060038406600381106102a457fe5b6003908102919091016002015433600090815260208190526040812091935091600019860106600381106102d457fe5b60030201600101549050816040516020018082815260200191505060405160208183030381529060405280519060200120811461031057600080fd5b33600090815260208190526040812060036000198701066003811061033157fe5b600302015492909218949350505050565b636184740081565b600381565b670de0b6b3a764000081565b600281611a40811061036c57600080fd5b0154905081565b60006020819052908152604090206009015481565b670de0b6b3a764000034101561039d57600080fd5b600082116103aa57600080fd5b806103b457600080fd5b604080514281526020810184905280820183905290517fe6f2d013637298f343ac99cb289c3f3d6e1b35fd5da2d68c2f77ef574ead58d29181900360600190a15050565b6000605a63618473ff19420104851461041057600080fd5b33600081815260208181526040808320600981018a9055815160608101835289815280840189905291820187905293835291905290600387066003811061045357fe5b6003020160008201518160000155602082015181600101556040820151816002015590505060015485111561048a5750600161048e565b5060005b949350505050565b605a63618473ff1942010482146104ac57600080fd5b60015482116104ba57600080fd5b334114156104e1576001829055806002611a40600019850106611a4081106104de57fe5b01555b5050565b60015481565b611a4081565b605a8156fea264697066735822122038460d4bf17672c9bccc7e35dda56dbcb58fc5740c793865211ce4361535e14f64736f6c63430007060033",
    "sourcePath": "/home/my-usern/songbird/src/stateco/StateConnector.sol",
    "compiler": {
        "name": "solc",
        "version": "0.7.6+commit.7338295f"
    },
    "functionHashes": {
        "ATTESTATION_REQUEST_FEE()": "6eddd9b4",
        "BUFFER_TIMESTAMP_OFFSET()": "4b8a125f",
        "BUFFER_WINDOW()": "f5f59a4a",
        "TOTAL_STORED_BUFFERS()": "5f8c940d",
        "TOTAL_STORED_PROOFS()": "f417c9d8",
        "buffers(address)": "71e24574",
        "finaliseRound(uint256,bytes32)": "eaebf6d3",
        "getAttestation(uint256)": "29be4db2",
        "merkleRoots(uint256)": "71c5ecb1",
        "requestAttestations(uint256,bytes32)": "7c3931c6",
        "submitAttestation(uint256,bytes32,bytes32,bytes32)": "cfd1fdad",
        "totalBuffers()": "ec7424a0"
    },
    "gasEstimates": {
        "creation": {
            "codeDepositCost": "264800",
            "executionCost": "306",
            "totalCost": "265106"
        },
        "external": {
            "ATTESTATION_REQUEST_FEE()": "265",
            "BUFFER_TIMESTAMP_OFFSET()": "221",
            "BUFFER_WINDOW()": "308",
            "TOTAL_STORED_BUFFERS()": "243",
            "TOTAL_STORED_PROOFS()": "286",
            "buffers(address)": "1244",
            "finaliseRound(uint256,bytes32)": "41196",
            "getAttestation(uint256)": "4132",
            "merkleRoots(uint256)": "1163",
            "requestAttestations(uint256,bytes32)": "1859",
            "submitAttestation(uint256,bytes32,bytes32,bytes32)": "81508",
            "totalBuffers()": "1064"
        }
    }
}