{
    "contractName": "StateConnector",
    "abi": [
        {
            "inputs": [],
            "stateMutability": "nonpayable",
            "type": "constructor"
        },
        {
            "anonymous": false,
            "inputs": [
                {
                    "indexed": false,
                    "internalType": "uint256",
                    "name": "timestamp",
                    "type": "uint256"
                },
                {
                    "indexed": false,
                    "internalType": "uint256",
                    "name": "instructions",
                    "type": "uint256"
                },
                {
                    "indexed": false,
                    "internalType": "bytes32",
                    "name": "id",
                    "type": "bytes32"
                }
            ],
            "name": "AttestationRequest",
            "type": "event"
        },
        {
            "inputs": [],
            "name": "BUFFER_TIMESTAMP_OFFSET",
            "outputs": [
                {
                    "internalType": "uint256",
                    "name": "",
                    "type": "uint256"
                }
            ],
            "stateMutability": "view",
            "type": "function"
        },
        {
            "inputs": [],
            "name": "BUFFER_WINDOW",
            "outputs": [
                {
                    "internalType": "uint256",
                    "name": "",
                    "type": "uint256"
                }
            ],
            "stateMutability": "view",
            "type": "function"
        },
        {
            "inputs": [],
            "name": "SIGNAL_COINBASE",
            "outputs": [
                {
                    "internalType": "address",
                    "name": "",
                    "type": "address"
                }
            ],
            "stateMutability": "view",
            "type": "function"
        },
        {
            "inputs": [],
            "name": "TOTAL_STORED_BUFFERS",
            "outputs": [
                {
                    "internalType": "uint256",
                    "name": "",
                    "type": "uint256"
                }
            ],
            "stateMutability": "view",
            "type": "function"
        },
        {
            "inputs": [],
            "name": "TOTAL_STORED_PROOFS",
            "outputs": [
                {
                    "internalType": "uint256",
                    "name": "",
                    "type": "uint256"
                }
            ],
            "stateMutability": "view",
            "type": "function"
        },
        {
            "inputs": [
                {
                    "internalType": "address",
                    "name": "",
                    "type": "address"
                }
            ],
            "name": "buffers",
            "outputs": [
                {
                    "internalType": "uint256",
                    "name": "latestVote",
                    "type": "uint256"
                }
            ],
            "stateMutability": "view",
            "type": "function"
        },
        {
            "inputs": [
                {
                    "internalType": "uint256",
                    "name": "bufferNumber",
                    "type": "uint256"
                },
                {
                    "internalType": "bytes32",
                    "name": "merkleHash",
                    "type": "bytes32"
                }
            ],
            "name": "finaliseRound",
            "outputs": [],
            "stateMutability": "nonpayable",
            "type": "function"
        },
        {
            "inputs": [
                {
                    "internalType": "uint256",
                    "name": "bufferNumber",
                    "type": "uint256"
                }
            ],
            "name": "getAttestation",
            "outputs": [
                {
                    "internalType": "bytes32",
                    "name": "_unmaskedMerkleHash",
                    "type": "bytes32"
                }
            ],
            "stateMutability": "view",
            "type": "function"
        },
        {
            "inputs": [
                {
                    "internalType": "uint256",
                    "name": "",
                    "type": "uint256"
                }
            ],
            "name": "merkleRoots",
            "outputs": [
                {
                    "internalType": "bytes32",
                    "name": "",
                    "type": "bytes32"
                }
            ],
            "stateMutability": "view",
            "type": "function"
        },
        {
            "inputs": [
                {
                    "internalType": "uint256",
                    "name": "instructions",
                    "type": "uint256"
                },
                {
                    "internalType": "bytes32",
                    "name": "id",
                    "type": "bytes32"
                }
            ],
            "name": "requestAttestations",
            "outputs": [],
            "stateMutability": "payable",
            "type": "function"
        },
        {
            "inputs": [
                {
                    "internalType": "uint256",
                    "name": "bufferNumber",
                    "type": "uint256"
                },
                {
                    "internalType": "bytes32",
                    "name": "maskedMerkleHash",
                    "type": "bytes32"
                },
                {
                    "internalType": "bytes32",
                    "name": "committedRandom",
                    "type": "bytes32"
                },
                {
                    "internalType": "bytes32",
                    "name": "revealedRandom",
                    "type": "bytes32"
                }
            ],
            "name": "submitAttestation",
            "outputs": [
                {
                    "internalType": "bool",
                    "name": "_isInitialBufferSlot",
                    "type": "bool"
                }
            ],
            "stateMutability": "nonpayable",
            "type": "function"
        },
        {
            "inputs": [],
            "name": "totalBuffers",
            "outputs": [
                {
                    "internalType": "uint256",
                    "name": "",
                    "type": "uint256"
                }
            ],
            "stateMutability": "view",
            "type": "function"
        }
    ],
    "bytecode": "608060405234801561001057600080fd5b5061056a806100206000396000f3fe6080604052600436106100a75760003560e01c80637ff6faa6116100645780637ff6faa614610194578063cfd1fdad146101c5578063eaebf6d314610215578063ec7424a014610245578063f417c9d81461025a578063f5f59a4a1461026f576100a7565b806329be4db2146100ac5780634b8a125f146100e85780635f8c940d146100fd57806371c5ecb11461011257806371e245741461013c5780637c3931c61461016f575b600080fd5b3480156100b857600080fd5b506100d6600480360360208110156100cf57600080fd5b5035610284565b60408051918252519081900360200190f35b3480156100f457600080fd5b506100d6610374565b34801561010957600080fd5b506100d661037c565b34801561011e57600080fd5b506100d66004803603602081101561013557600080fd5b5035610381565b34801561014857600080fd5b506100d66004803603602081101561015f57600080fd5b50356001600160a01b0316610399565b6101926004803603604081101561018557600080fd5b50803590602001356103ae565b005b3480156101a057600080fd5b506101a9610416565b604080516001600160a01b039092168252519081900360200190f35b3480156101d157600080fd5b50610201600480360360808110156101e857600080fd5b508035906020810135906040810135906060013561041c565b604080519115158252519081900360200190f35b34801561022157600080fd5b506101926004803603604081101561023857600080fd5b50803590602001356104ba565b34801561025157600080fd5b506100d6610523565b34801561026657600080fd5b506100d6610529565b34801561027b57600080fd5b506100d661052f565b60006001821161029357600080fd5b336000908152602081905260409020600901546000198301908111156102b857600080fd5b33600090815260208190526040812060038306600381106102d557fe5b60039081029190910160020154336000908152602081905260408120919350916000198501066003811061030557fe5b60030201600101549050816040516020018082815260200191505060405160208183030381529060405280519060200120811461034157600080fd5b33600090815260208190526040812060036000198601066003811061036257fe5b60030201549290921895945050505050565b636184740081565b600381565b600281611a40811061039257600080fd5b0154905081565b60006020819052908152604090206009015481565b600034116103bb57600080fd5b600082116103c857600080fd5b806103d257600080fd5b604080514281526020810184905280820183905290517fe6f2d013637298f343ac99cb289c3f3d6e1b35fd5da2d68c2f77ef574ead58d29181900360600190a15050565b61dead81565b6000605a63618473ff19420104851461043457600080fd5b33600081815260208181526040808320600981018a9055815160608101835289815280840189905291820187905293835291905290600387066003811061047757fe5b600302016000820151816000015560208201518160010155604082015181600201559050506001548511156104ae575060016104b2565b5060005b949350505050565b600182116104c757600080fd5b605a63618473ff1942010482146104dd57600080fd5b60015482116104eb57600080fd5b33411480156104fb57504161dead145b1561051f576001829055806002611a40600019850106611a40811061051c57fe5b01555b5050565b60015481565b611a4081565b605a8156fea2646970667358221220f1e60a053bf944f7d0f9563212e93e1604949d735cf048f1cde5bb328a4c300364736f6c63430007060033",
    "sourcePath": "/home/my-usern/songbird/src/stateco/StateConnector.sol",
    "compiler": {
        "name": "solc",
        "version": "0.7.6+commit.7338295f"
    },
    "functionHashes": {
        "BUFFER_TIMESTAMP_OFFSET()": "4b8a125f",
        "BUFFER_WINDOW()": "f5f59a4a",
        "SIGNAL_COINBASE()": "7ff6faa6",
        "TOTAL_STORED_BUFFERS()": "5f8c940d",
        "TOTAL_STORED_PROOFS()": "f417c9d8",
        "buffers(address)": "71e24574",
        "finaliseRound(uint256,bytes32)": "eaebf6d3",
        "getAttestation(uint256)": "29be4db2",
        "merkleRoots(uint256)": "71c5ecb1",
        "requestAttestations(uint256,bytes32)": "7c3931c6",
        "submitAttestation(uint256,bytes32,bytes32,bytes32)": "cfd1fdad",
        "totalBuffers()": "ec7424a0"
    },
    "gasEstimates": {
        "creation": {
            "codeDepositCost": "277200",
            "executionCost": "318",
            "totalCost": "277518"
        },
        "external": {
            "BUFFER_TIMESTAMP_OFFSET()": "221",
            "BUFFER_WINDOW()": "308",
            "SIGNAL_COINBASE()": "219",
            "TOTAL_STORED_BUFFERS()": "243",
            "TOTAL_STORED_PROOFS()": "286",
            "buffers(address)": "1222",
            "finaliseRound(uint256,bytes32)": "41249",
            "getAttestation(uint256)": "4175",
            "merkleRoots(uint256)": "1141",
            "requestAttestations(uint256,bytes32)": "1967",
            "submitAttestation(uint256,bytes32,bytes32,bytes32)": "81508",
            "totalBuffers()": "1064"
        }
    }
}