{
    "contractName": "StateConnector",
    "abi": [
        {
            "inputs": [],
            "stateMutability": "nonpayable",
            "type": "constructor"
        },
        {
            "anonymous": false,
            "inputs": [
                {
                    "indexed": false,
                    "internalType": "uint256",
                    "name": "timestamp",
                    "type": "uint256"
                },
                {
                    "indexed": false,
                    "internalType": "uint256",
                    "name": "instructions",
                    "type": "uint256"
                },
                {
                    "indexed": false,
                    "internalType": "bytes32",
                    "name": "txId",
                    "type": "bytes32"
                }
            ],
            "name": "AttestationRequest",
            "type": "event"
        },
        {
            "inputs": [],
            "name": "BUFFER_TIMESTAMP_OFFSET",
            "outputs": [
                {
                    "internalType": "uint256",
                    "name": "",
                    "type": "uint256"
                }
            ],
            "stateMutability": "view",
            "type": "function"
        },
        {
            "inputs": [],
            "name": "BUFFER_WINDOW",
            "outputs": [
                {
                    "internalType": "uint256",
                    "name": "",
                    "type": "uint256"
                }
            ],
            "stateMutability": "view",
            "type": "function"
        },
        {
            "inputs": [],
            "name": "TOTAL_STORED_BUFFERS",
            "outputs": [
                {
                    "internalType": "uint256",
                    "name": "",
                    "type": "uint256"
                }
            ],
            "stateMutability": "view",
            "type": "function"
        },
        {
            "inputs": [],
            "name": "TOTAL_STORED_PROOFS",
            "outputs": [
                {
                    "internalType": "uint256",
                    "name": "",
                    "type": "uint256"
                }
            ],
            "stateMutability": "view",
            "type": "function"
        },
        {
            "inputs": [
                {
                    "internalType": "address",
                    "name": "",
                    "type": "address"
                }
            ],
            "name": "buffers",
            "outputs": [
                {
                    "internalType": "uint256",
                    "name": "latestVote",
                    "type": "uint256"
                }
            ],
            "stateMutability": "view",
            "type": "function"
        },
        {
            "inputs": [
                {
                    "internalType": "uint256",
                    "name": "bufferNumber",
                    "type": "uint256"
                },
                {
                    "internalType": "bytes32",
                    "name": "merkleHash",
                    "type": "bytes32"
                }
            ],
            "name": "finaliseRound",
            "outputs": [],
            "stateMutability": "nonpayable",
            "type": "function"
        },
        {
            "inputs": [
                {
                    "internalType": "uint256",
                    "name": "bufferNumber",
                    "type": "uint256"
                }
            ],
            "name": "getAttestation",
            "outputs": [
                {
                    "internalType": "bytes32",
                    "name": "_unmaskedMerkleHash",
                    "type": "bytes32"
                }
            ],
            "stateMutability": "view",
            "type": "function"
        },
        {
            "inputs": [
                {
                    "internalType": "uint256",
                    "name": "",
                    "type": "uint256"
                }
            ],
            "name": "merkleRoots",
            "outputs": [
                {
                    "internalType": "bytes32",
                    "name": "",
                    "type": "bytes32"
                }
            ],
            "stateMutability": "view",
            "type": "function"
        },
        {
            "inputs": [
                {
                    "internalType": "uint256",
                    "name": "instructions",
                    "type": "uint256"
                },
                {
                    "internalType": "bytes32",
                    "name": "txId",
                    "type": "bytes32"
                }
            ],
            "name": "requestAttestations",
            "outputs": [],
            "stateMutability": "payable",
            "type": "function"
        },
        {
            "inputs": [
                {
                    "internalType": "uint256",
                    "name": "bufferNumber",
                    "type": "uint256"
                },
                {
                    "internalType": "bytes32",
                    "name": "maskedMerkleHash",
                    "type": "bytes32"
                },
                {
                    "internalType": "bytes32",
                    "name": "committedRandom",
                    "type": "bytes32"
                },
                {
                    "internalType": "bytes32",
                    "name": "revealedRandom",
                    "type": "bytes32"
                }
            ],
            "name": "submitAttestation",
            "outputs": [],
            "stateMutability": "nonpayable",
            "type": "function"
        },
        {
            "inputs": [],
            "name": "totalProofs",
            "outputs": [
                {
                    "internalType": "uint256",
                    "name": "",
                    "type": "uint256"
                }
            ],
            "stateMutability": "view",
            "type": "function"
        }
    ],
    "bytecode": "608060405234801561001057600080fd5b506104ce806100206000396000f3fe60806040526004361061009c5760003560e01c806371e245741161006457806371e24574146101465780637c3931c614610179578063cfd1fdad1461019e578063eaebf6d3146101da578063f417c9d81461020a578063f5f59a4a1461021f5761009c565b806329be4db2146100a15780632ded3568146100dd5780634b8a125f146100f25780635f8c940d1461010757806371c5ecb11461011c575b600080fd5b3480156100ad57600080fd5b506100cb600480360360208110156100c457600080fd5b5035610234565b60408051918252519081900360200190f35b3480156100e957600080fd5b506100cb61030e565b3480156100fe57600080fd5b506100cb610314565b34801561011357600080fd5b506100cb61031c565b34801561012857600080fd5b506100cb6004803603602081101561013f57600080fd5b5035610321565b34801561015257600080fd5b506100cb6004803603602081101561016957600080fd5b50356001600160a01b0316610339565b61019c6004803603604081101561018f57600080fd5b508035906020013561034e565b005b3480156101aa57600080fd5b5061019c600480360360808110156101c157600080fd5b50803590602081013590604081013590606001356103be565b3480156101e657600080fd5b5061019c600480360360408110156101fd57600080fd5b5080359060200135610442565b34801561021657600080fd5b506100cb61048d565b34801561022b57600080fd5b506100cb610493565b3360009081526020819052604081206009015482111561025357600080fd5b336000908152602081905260408120600384066003811061027057fe5b6003908102919091016002015433600090815260208190526040812091935091600019860106600381106102a057fe5b6003020160010154905081604051602001808281526020019150506040516020818303038152906040528051906020012081146102dc57600080fd5b3360009081526020819052604081206003600019870106600381106102fd57fe5b600302015492909218949350505050565b60015481565b636184740081565b600381565b600281611a40811061033257600080fd5b0154905081565b60006020819052908152604090206009015481565b670de0b6b3a764000034101561036357600080fd5b6000821161037057600080fd5b8061037a57600080fd5b604080514281526020810184905280820183905290517fe6f2d013637298f343ac99cb289c3f3d6e1b35fd5da2d68c2f77ef574ead58d29181900360600190a15050565b605a63618473ff1942010484146103d457600080fd5b3360008181526020818152604080832060098101899055815160608101835288815280840188905291820186905293835291905290600386066003811061041757fe5b6003020160008201518160000155602082015181600101556040820151816002015590505050505050565b605a63618473ff19420104821461045857600080fd5b600154821161046657600080fd5b33411415610489576001829055806002611a408406611a40811061048657fe5b01555b5050565b611a4081565b605a8156fea2646970667358221220e7ca821fe5014f735c9387010393e63d500ff12c8dc2e060d1680578ad7f609264736f6c63430007060033",
    "sourcePath": "/home/my-usern/songbird/src/stateco/StateConnector.sol",
    "compiler": {
        "name": "solc",
        "version": "0.7.6+commit.7338295f"
    },
    "functionHashes": {
        "BUFFER_TIMESTAMP_OFFSET()": "4b8a125f",
        "BUFFER_WINDOW()": "f5f59a4a",
        "TOTAL_STORED_BUFFERS()": "5f8c940d",
        "TOTAL_STORED_PROOFS()": "f417c9d8",
        "buffers(address)": "71e24574",
        "finaliseRound(uint256,bytes32)": "eaebf6d3",
        "getAttestation(uint256)": "29be4db2",
        "merkleRoots(uint256)": "71c5ecb1",
        "requestAttestations(uint256,bytes32)": "7c3931c6",
        "submitAttestation(uint256,bytes32,bytes32,bytes32)": "cfd1fdad",
        "totalProofs()": "2ded3568"
    },
    "gasEstimates": {
        "creation": {
            "codeDepositCost": "246000",
            "executionCost": "287",
            "totalCost": "246287"
        },
        "external": {
            "BUFFER_TIMESTAMP_OFFSET()": "243",
            "BUFFER_WINDOW()": "308",
            "TOTAL_STORED_BUFFERS()": "265",
            "TOTAL_STORED_PROOFS()": "286",
            "buffers(address)": "1133",
            "finaliseRound(uint256,bytes32)": "41209",
            "getAttestation(uint256)": "4132",
            "merkleRoots(uint256)": "1163",
            "requestAttestations(uint256,bytes32)": "1881",
            "submitAttestation(uint256,bytes32,bytes32,bytes32)": "80628",
            "totalProofs()": "1021"
        }
    }
}