{
    "contractName": "StateConnector",
    "abi": [
        {
            "inputs": [],
            "stateMutability": "nonpayable",
            "type": "constructor"
        },
        {
            "anonymous": false,
            "inputs": [
                {
                    "indexed": false,
                    "internalType": "uint256",
                    "name": "timestamp",
                    "type": "uint256"
                },
                {
                    "indexed": false,
                    "internalType": "uint256",
                    "name": "bufferNumber",
                    "type": "uint256"
                },
                {
                    "indexed": false,
                    "internalType": "uint256",
                    "name": "instructions",
                    "type": "uint256"
                },
                {
                    "indexed": false,
                    "internalType": "bytes32",
                    "name": "txId",
                    "type": "bytes32"
                }
            ],
            "name": "AttestationRequest",
            "type": "event"
        },
        {
            "inputs": [],
            "name": "BUFFER_TIMESTAMP_OFFSET",
            "outputs": [
                {
                    "internalType": "uint256",
                    "name": "",
                    "type": "uint256"
                }
            ],
            "stateMutability": "view",
            "type": "function"
        },
        {
            "inputs": [],
            "name": "BUFFER_WINDOW",
            "outputs": [
                {
                    "internalType": "uint256",
                    "name": "",
                    "type": "uint256"
                }
            ],
            "stateMutability": "view",
            "type": "function"
        },
        {
            "inputs": [],
            "name": "TOTAL_STORED_BUFFERS",
            "outputs": [
                {
                    "internalType": "uint256",
                    "name": "",
                    "type": "uint256"
                }
            ],
            "stateMutability": "view",
            "type": "function"
        },
        {
            "inputs": [
                {
                    "internalType": "address",
                    "name": "",
                    "type": "address"
                }
            ],
            "name": "buffers",
            "outputs": [
                {
                    "internalType": "uint256",
                    "name": "latestVoteBlockNumber",
                    "type": "uint256"
                }
            ],
            "stateMutability": "view",
            "type": "function"
        },
        {
            "inputs": [
                {
                    "internalType": "uint256",
                    "name": "",
                    "type": "uint256"
                }
            ],
            "name": "earliestBufferBlockNumber",
            "outputs": [
                {
                    "internalType": "uint256",
                    "name": "",
                    "type": "uint256"
                }
            ],
            "stateMutability": "view",
            "type": "function"
        },
        {
            "inputs": [
                {
                    "internalType": "uint256",
                    "name": "instructions",
                    "type": "uint256"
                },
                {
                    "internalType": "bytes32",
                    "name": "txId",
                    "type": "bytes32"
                }
            ],
            "name": "requestAttestations",
            "outputs": [],
            "stateMutability": "payable",
            "type": "function"
        },
        {
            "inputs": [
                {
                    "internalType": "uint256",
                    "name": "bufferNumber",
                    "type": "uint256"
                },
                {
                    "internalType": "bytes32",
                    "name": "maskedMerkleHash",
                    "type": "bytes32"
                },
                {
                    "internalType": "bytes32",
                    "name": "committedRandom",
                    "type": "bytes32"
                },
                {
                    "internalType": "bytes32",
                    "name": "revealedRandom",
                    "type": "bytes32"
                }
            ],
            "name": "submitAttestation",
            "outputs": [],
            "stateMutability": "nonpayable",
            "type": "function"
        },
        {
            "inputs": [],
            "name": "totalBuffers",
            "outputs": [
                {
                    "internalType": "uint256",
                    "name": "",
                    "type": "uint256"
                }
            ],
            "stateMutability": "view",
            "type": "function"
        }
    ],
    "bytecode": "608060405234801561001057600080fd5b5061034b806100206000396000f3fe60806040526004361061007b5760003560e01c80637c3931c61161004e5780637c3931c614610119578063cfd1fdad1461013e578063ec7424a01461017a578063f5f59a4a1461018f5761007b565b80631deb7db0146100805780634b8a125f146100bc5780635f8c940d146100d157806371e24574146100e6575b600080fd5b34801561008c57600080fd5b506100aa600480360360208110156100a357600080fd5b50356101a4565b60408051918252519081900360200190f35b3480156100c857600080fd5b506100aa6101bb565b3480156100dd57600080fd5b506100aa6101c3565b3480156100f257600080fd5b506100aa6004803603602081101561010957600080fd5b50356001600160a01b03166101c8565b61013c6004803603604081101561012f57600080fd5b50803590602001356101dd565b005b34801561014a57600080fd5b5061013c6004803603608081101561016157600080fd5b5080359060208101359060408101359060600135610287565b34801561018657600080fd5b506100aa61030a565b34801561019b57600080fd5b506100aa610310565b600281600381106101b457600080fd5b0154905081565b636184740081565b600381565b60006020819052908152604090206009015481565b670de0b6b3a76400003410156101f257600080fd5b600082116101ff57600080fd5b8061020957600080fd5b600154605a4263618473ff1901049081111561023857436002600383066003811061023057fe5b015560018190555b60015460408051428152602081019290925281810185905260608201849052517f70604797ebc38aef73a8c5781edc54dac2a502868925009dc6fc75a8066229c49181900360800190a1505050565b605a63618473ff19420104841461029d57600080fd5b3360008181526020818152604080832043600982015581516060810183528881528084018890529182018690529383529190529060038606600381106102df57fe5b6003020160008201518160000155602082015181600101556040820151816002015590505050505050565b60015481565b605a8156fea2646970667358221220ee01bc3f4b455e9f1d9d2d6aaeeab000590a07b6b6e2705247902f78cc932ec464736f6c63430007060033",
    "sourcePath": "/home/my-usern/songbird/src/stateco/StateConnector.sol",
    "compiler": {
        "name": "solc",
        "version": "0.7.6+commit.7338295f"
    },
    "functionHashes": {
        "BUFFER_TIMESTAMP_OFFSET()": "4b8a125f",
        "BUFFER_WINDOW()": "f5f59a4a",
        "TOTAL_STORED_BUFFERS()": "5f8c940d",
        "buffers(address)": "71e24574",
        "earliestBufferBlockNumber(uint256)": "1deb7db0",
        "requestAttestations(uint256,bytes32)": "7c3931c6",
        "submitAttestation(uint256,bytes32,bytes32,bytes32)": "cfd1fdad",
        "totalBuffers()": "ec7424a0"
    },
    "gasEstimates": {
        "creation": {
            "codeDepositCost": "168600",
            "executionCost": "214",
            "totalCost": "168814"
        },
        "external": {
            "BUFFER_TIMESTAMP_OFFSET()": "221",
            "BUFFER_WINDOW()": "264",
            "TOTAL_STORED_BUFFERS()": "243",
            "buffers(address)": "1200",
            "earliestBufferBlockNumber(uint256)": "1075",
            "requestAttestations(uint256,bytes32)": "43840",
            "submitAttestation(uint256,bytes32,bytes32,bytes32)": "80602",
            "totalBuffers()": "1042"
        }
    }
}