{
    "contractName": "StateConnector",
    "abi": [
        {
            "inputs": [],
            "stateMutability": "nonpayable",
            "type": "constructor"
        },
        {
            "anonymous": false,
            "inputs": [
                {
                    "indexed": false,
                    "internalType": "uint256",
                    "name": "timestamp",
                    "type": "uint256"
                },
                {
                    "indexed": false,
                    "internalType": "uint256",
                    "name": "bufferNumber",
                    "type": "uint256"
                },
                {
                    "indexed": false,
                    "internalType": "uint256",
                    "name": "instructions",
                    "type": "uint256"
                },
                {
                    "indexed": false,
                    "internalType": "bytes32",
                    "name": "txId",
                    "type": "bytes32"
                }
            ],
            "name": "AttestationRequest",
            "type": "event"
        },
        {
            "inputs": [],
            "name": "BUFFER_WINDOW",
            "outputs": [
                {
                    "internalType": "uint256",
                    "name": "",
                    "type": "uint256"
                }
            ],
            "stateMutability": "view",
            "type": "function"
        },
        {
            "inputs": [
                {
                    "internalType": "address",
                    "name": "",
                    "type": "address"
                }
            ],
            "name": "buffers",
            "outputs": [
                {
                    "internalType": "uint256",
                    "name": "latestVoteBlockNumber",
                    "type": "uint256"
                }
            ],
            "stateMutability": "view",
            "type": "function"
        },
        {
            "inputs": [
                {
                    "internalType": "uint256",
                    "name": "",
                    "type": "uint256"
                }
            ],
            "name": "earliestBufferBlockNumber",
            "outputs": [
                {
                    "internalType": "uint256",
                    "name": "",
                    "type": "uint256"
                }
            ],
            "stateMutability": "view",
            "type": "function"
        },
        {
            "inputs": [
                {
                    "internalType": "uint256",
                    "name": "instructions",
                    "type": "uint256"
                },
                {
                    "internalType": "bytes32",
                    "name": "txId",
                    "type": "bytes32"
                }
            ],
            "name": "requestAttestations",
            "outputs": [],
            "stateMutability": "payable",
            "type": "function"
        },
        {
            "inputs": [
                {
                    "internalType": "uint256",
                    "name": "bufferNumber",
                    "type": "uint256"
                },
                {
                    "internalType": "bytes32",
                    "name": "maskedMerkleHash",
                    "type": "bytes32"
                },
                {
                    "internalType": "bytes32",
                    "name": "committedRandom",
                    "type": "bytes32"
                },
                {
                    "internalType": "bytes32",
                    "name": "revealedRandom",
                    "type": "bytes32"
                }
            ],
            "name": "submitAttestation",
            "outputs": [],
            "stateMutability": "nonpayable",
            "type": "function"
        },
        {
            "inputs": [],
            "name": "totalBuffers",
            "outputs": [
                {
                    "internalType": "uint256",
                    "name": "",
                    "type": "uint256"
                }
            ],
            "stateMutability": "view",
            "type": "function"
        }
    ],
    "bytecode": "608060405234801561001057600080fd5b506102e0806100206000396000f3fe6080604052600436106100555760003560e01c80631deb7db01461005a57806371e24574146100965780637c3931c6146100c9578063cfd1fdad146100ee578063ec7424a01461012a578063f5f59a4a1461013f575b600080fd5b34801561006657600080fd5b506100846004803603602081101561007d57600080fd5b5035610154565b60408051918252519081900360200190f35b3480156100a257600080fd5b50610084600480360360208110156100b957600080fd5b50356001600160a01b031661016b565b6100ec600480360360408110156100df57600080fd5b5080359060200135610180565b005b3480156100fa57600080fd5b506100ec6004803603608081101561011157600080fd5b5080359060208101359060408101359060600135610223565b34801561013657600080fd5b5061008461029f565b34801561014b57600080fd5b506100846102a5565b6002816003811061016457600080fd5b0154905081565b60006020819052908152604090206009015481565b670de0b6b3a764000034101561019557600080fd5b600082116101a257600080fd5b806101ac57600080fd5b600154605a4204908111156101d45743600260038306600381106101cc57fe5b015560018190555b60015460408051428152602081019290925281810185905260608201849052517f70604797ebc38aef73a8c5781edc54dac2a502868925009dc6fc75a8066229c49181900360800190a1505050565b605a4204841461023257600080fd5b33600081815260208181526040808320436009820155815160608101835288815280840188905291820186905293835291905290600386066003811061027457fe5b6003020160008201518160000155602082015181600101556040820151816002015590505050505050565b60015481565b605a8156fea26469706673582212204f5535797aa825bf154bf6c8b016a9b07c51c3ccbea7cfa9db4a226a2c29a4ff64736f6c63430007060033",
    "sourcePath": "/home/my-usern/songbird/src/stateco/StateConnector.sol",
    "compiler": {
        "name": "solc",
        "version": "0.7.6+commit.7338295f"
    },
    "functionHashes": {
        "BUFFER_WINDOW()": "f5f59a4a",
        "buffers(address)": "71e24574",
        "earliestBufferBlockNumber(uint256)": "1deb7db0",
        "requestAttestations(uint256,bytes32)": "7c3931c6",
        "submitAttestation(uint256,bytes32,bytes32,bytes32)": "cfd1fdad",
        "totalBuffers()": "ec7424a0"
    },
    "gasEstimates": {
        "creation": {
            "codeDepositCost": "147200",
            "executionCost": "190",
            "totalCost": "147390"
        },
        "external": {
            "BUFFER_WINDOW()": "286",
            "buffers(address)": "1133",
            "earliestBufferBlockNumber(uint256)": "1052",
            "requestAttestations(uint256,bytes32)": "43853",
            "submitAttestation(uint256,bytes32,bytes32,bytes32)": "80615",
            "totalBuffers()": "1064"
        },
        "internal": {
            "bufferIndex()": "infinite"
        }
    }
}