{
    "contractName": "StateConnector",
    "abi": [
        {
            "inputs": [],
            "stateMutability": "nonpayable",
            "type": "constructor"
        },
        {
            "anonymous": false,
            "inputs": [
                {
                    "indexed": false,
                    "internalType": "uint64",
                    "name": "chainId",
                    "type": "uint64"
                },
                {
                    "indexed": false,
                    "internalType": "uint64",
                    "name": "blockHeight",
                    "type": "uint64"
                },
                {
                    "indexed": false,
                    "internalType": "bytes32",
                    "name": "txId",
                    "type": "bytes32"
                },
                {
                    "indexed": false,
                    "internalType": "uint16",
                    "name": "utxo",
                    "type": "uint16"
                },
                {
                    "indexed": false,
                    "internalType": "bytes32",
                    "name": "payloadHash",
                    "type": "bytes32"
                }
            ],
            "name": "AttestationRequested",
            "type": "event"
        },
        {
            "inputs": [],
            "name": "attestationRequestNumber",
            "outputs": [
                {
                    "internalType": "uint256",
                    "name": "",
                    "type": "uint256"
                }
            ],
            "stateMutability": "view",
            "type": "function"
        },
        {
            "inputs": [
                {
                    "internalType": "uint256",
                    "name": "",
                    "type": "uint256"
                }
            ],
            "name": "attestationRequests",
            "outputs": [
                {
                    "internalType": "uint256",
                    "name": "attestationWindowEndTime",
                    "type": "uint256"
                },
                {
                    "internalType": "bytes32",
                    "name": "attestationHash",
                    "type": "bytes32"
                }
            ],
            "stateMutability": "view",
            "type": "function"
        },
        {
            "inputs": [
                {
                    "internalType": "uint256",
                    "name": "n",
                    "type": "uint256"
                }
            ],
            "name": "getAttestation",
            "outputs": [
                {
                    "internalType": "bool",
                    "name": "_attested",
                    "type": "bool"
                }
            ],
            "stateMutability": "view",
            "type": "function"
        },
        {
            "inputs": [
                {
                    "internalType": "address",
                    "name": "",
                    "type": "address"
                }
            ],
            "name": "latestAttestationRequestFulfilled",
            "outputs": [
                {
                    "internalType": "uint256",
                    "name": "",
                    "type": "uint256"
                }
            ],
            "stateMutability": "view",
            "type": "function"
        },
        {
            "inputs": [
                {
                    "internalType": "address",
                    "name": "",
                    "type": "address"
                }
            ],
            "name": "latestBlockHeightFulfilled",
            "outputs": [
                {
                    "internalType": "uint256",
                    "name": "",
                    "type": "uint256"
                }
            ],
            "stateMutability": "view",
            "type": "function"
        },
        {
            "inputs": [
                {
                    "internalType": "uint64",
                    "name": "chainId",
                    "type": "uint64"
                },
                {
                    "internalType": "uint64",
                    "name": "blockHeight",
                    "type": "uint64"
                },
                {
                    "internalType": "bytes32",
                    "name": "txId",
                    "type": "bytes32"
                },
                {
                    "internalType": "uint16",
                    "name": "utxo",
                    "type": "uint16"
                },
                {
                    "internalType": "bytes32",
                    "name": "payloadHash",
                    "type": "bytes32"
                },
                {
                    "internalType": "uint256",
                    "name": "n",
                    "type": "uint256"
                }
            ],
            "name": "proveTransaction",
            "outputs": [
                {
                    "internalType": "uint256",
                    "name": "_n",
                    "type": "uint256"
                }
            ],
            "stateMutability": "nonpayable",
            "type": "function"
        },
        {
            "inputs": [
                {
                    "internalType": "uint64",
                    "name": "chainId",
                    "type": "uint64"
                },
                {
                    "internalType": "uint64",
                    "name": "blockHeight",
                    "type": "uint64"
                },
                {
                    "internalType": "bytes32",
                    "name": "txId",
                    "type": "bytes32"
                },
                {
                    "internalType": "uint16",
                    "name": "utxo",
                    "type": "uint16"
                },
                {
                    "internalType": "bytes32",
                    "name": "destinationHash",
                    "type": "bytes32"
                },
                {
                    "internalType": "bytes32",
                    "name": "dataHash",
                    "type": "bytes32"
                },
                {
                    "internalType": "uint256",
                    "name": "amount",
                    "type": "uint256"
                }
            ],
            "name": "reconstructTransactionProof",
            "outputs": [
                {
                    "internalType": "bool",
                    "name": "_proven",
                    "type": "bool"
                }
            ],
            "stateMutability": "view",
            "type": "function"
        },
        {
            "inputs": [
                {
                    "internalType": "uint64",
                    "name": "chainId",
                    "type": "uint64"
                },
                {
                    "internalType": "uint64",
                    "name": "blockHeight",
                    "type": "uint64"
                },
                {
                    "internalType": "bytes32",
                    "name": "txId",
                    "type": "bytes32"
                },
                {
                    "internalType": "uint16",
                    "name": "utxo",
                    "type": "uint16"
                },
                {
                    "internalType": "bytes32",
                    "name": "payloadHash",
                    "type": "bytes32"
                }
            ],
            "name": "requestAttestations",
            "outputs": [],
            "stateMutability": "payable",
            "type": "function"
        },
        {
            "inputs": [
                {
                    "internalType": "uint256",
                    "name": "lowestAttestationRequestNumber",
                    "type": "uint256"
                },
                {
                    "internalType": "uint256",
                    "name": "booleanMap",
                    "type": "uint256"
                }
            ],
            "name": "submitAttestations",
            "outputs": [],
            "stateMutability": "nonpayable",
            "type": "function"
        }
    ],
    "bytecode": "608060405234801561001057600080fd5b50610d56806100206000396000f3fe6080604052600436106100865760003560e01c806374d867841161005957806374d867841461016c578063b8f5efde146101cc578063c1100f3b146101ff578063c783b39f1461022f578063f603586a1461027257610086565b80630695ef281461008b578063091e1266146100d45780631cf5bb62146100fb57806329be4db21461012e575b600080fd5b6100d2600480360360a08110156100a157600080fd5b5067ffffffffffffffff813581169160208101359091169060408101359061ffff60608201351690608001356102cc565b005b3480156100e057600080fd5b506100e961063b565b60408051918252519081900360200190f35b34801561010757600080fd5b506100e96004803603602081101561011e57600080fd5b50356001600160a01b0316610641565b34801561013a57600080fd5b506101586004803603602081101561015157600080fd5b5035610653565b604080519115158252519081900360200190f35b34801561017857600080fd5b50610158600480360360e081101561018f57600080fd5b5067ffffffffffffffff813581169160208101359091169060408101359061ffff6060820135169060808101359060a08101359060c00135610687565b3480156101d857600080fd5b506100e9600480360360208110156101ef57600080fd5b50356001600160a01b031661090d565b34801561020b57600080fd5b506100d26004803603604081101561022257600080fd5b508035906020013561091f565b34801561023b57600080fd5b506102596004803603602081101561025257600080fd5b503561095c565b6040805192835260208301919091528051918290030190f35b34801561027e57600080fd5b506100e9600480360360c081101561029557600080fd5b5067ffffffffffffffff813581169160208101359091169060408101359061ffff6060820135169060808101359060a00135610975565b670de0b6b3a764000034116102e057600080fd5b60008467ffffffffffffffff1611610332576040805162461bcd60e51b815260206004820152601060248201526f0626c6f636b486569676874203d3d20360841b604482015290519081900360640190fd5b82610372576040805162461bcd60e51b815260206004820152600b60248201526a074784964203d3d203078360ac1b604482015290519081900360640190fd5b806103b9576040805162461bcd60e51b815260206004820152601260248201527107061796c6f616448617368203d3d203078360741b604482015290519081900360640190fd5b604080517f466c6172655374617465436f6e6e6563746f725f4c4f434154494f4e000000006020808301919091528251601c818403018152603c8301845280519082012060c089811b6001600160c01b0319908116605c86015285518086036044018152606486018752805190850120918a901b1660848501528451808503606c018152608c8501865280519084012060ac8086018a90528651808703909101815260cc8601875280519085012060f089901b6001600160f01b03191660ec870152865180870360ce01815260ee8701885280519086012061010e87019490945261012e86019290925261014e85015261016e84015261018e80840191909152835180840390910181526101ae830184528051908201207f466c6172655374617465436f6e6e6563746f725f4154544553544154494f4e006101ce84015283518084036101cd0181526101ed8401855280519083012061020d84015261022d830181905261024d8084018690528451808503909101815261026d90930184528251928201929092206000818152600590925292902054909190156105a4576040805162461bcd60e51b815260206004820152601a60248201527f7472616e73616374696f6e20616c72656164792070726f76656e000000000000604482015290519081900360640190fd5b6040805180820182524260b40181526020808201848152600080548152600180845290859020935184559051920191909155815167ffffffffffffffff808b16825289169181019190915280820187905261ffff861660608201526080810185905290517f79ef0d735923a1d8fe0815852cdc9e9857475b8f67a90b4ba2f52e746f3a3da89181900360a00190a150505050505050565b60005481565b60046020526000908152604090205481565b3360009081526002602090815260408083206101008086048552925290912054600160ff9093169091039190911b16151590565b604080517f466c6172655374617465436f6e6e6563746f725f4c4f434154494f4e000000006020808301919091528251601c818403018152603c8301845280519082012060c08b811b6001600160c01b0319908116605c86015285518086036044018152606486018752805190850120918c901b1660848501528451808503606c018152608c8501865280519084012060ac8086018c90528651808703909101815260cc8601875280519085012060f08b901b6001600160f01b03191660ec870152865180870360ce01815260ee8701885280519086012061010e87019490945261012e86019290925261014e85015261016e84015261018e80840191909152835180840390910181526101ae909201835281519181019190912060008181526005909252918120549091906107fd576040805162461bcd60e51b81526020600482015260166024820152753a3930b739b0b1ba34b7b7103737ba10383937bb32b760511b604482015290519081900360640190fd5b604080517f466c6172655374617465436f6e6e6563746f725f5041594c4f414400000000006020808301919091528251808303601b018152603b83018452805190820120605b80840188905284518085039091018152607b84018552805190830120609b84019190915260bb830189905260db830188905260fb808401919091528351808403909101815261011b9092018352815191810191909120600084815260059092529190205481146108f0576040805162461bcd60e51b81526020600482015260136024820152720d2dcecc2d8d2c840e0c2f2d8dec2c890c2e6d606b1b604482015290519081900360640190fd5b600091825260056020526040909120541498975050505050505050565b60036020526000908152604090205481565b3360009081526002602090815260408083206101008087048086529190935281842060ff90961685811c90965560010183529091209290031b9055565b6001602081905260009182526040909120805491015482565b600080548211156109bd576040805162461bcd60e51b815260206004820152600d60248201526c0dc40d2e640e8dede40d0d2ced609b1b604482015290519081900360640190fd5b600082815260016020526040902054610a075760405162461bcd60e51b8152600401808060200182810382526022815260200180610cdd6022913960400191505060405180910390fd5b600082815260016020526040902054421015610a545760405162461bcd60e51b8152600401808060200182810382526022815260200180610cff6022913960400191505060405180910390fd5b604080517f466c6172655374617465436f6e6e6563746f725f4c4f434154494f4e000000006020808301919091528251601c818403018152603c8301845280519082012060c08b811b6001600160c01b0319908116605c86015285518086036044018152606486018752805190850120918c901b1660848501528451808503606c018152608c8501865280519084012060ac8086018c90528651808703909101815260cc8601875280519085012060f08b901b6001600160f01b03191660ec870152865180870360ce01815260ee8701885280519086012061010e87019490945261012e86019290925261014e85015261016e84015261018e80840191909152835180840390910181526101ae9092018352815191810191909120600081815260059092529190205415610bcf576040805162461bcd60e51b815260206004820152601a60248201527f7472616e73616374696f6e20616c72656164792070726f76656e000000000000604482015290519081900360640190fd5b604080517f466c6172655374617465436f6e6e6563746f725f4154544553544154494f4e006020808301919091528251808303601f018152603f83018452805190820120605f830152607f8201849052609f8083018890528351808403909101815260bf909201835281519181019190912060008681526001928390529290922001548114610ca5576040805162461bcd60e51b815260206004820152601b60248201527f696e76616c6964206174746573746174696f6e2064657461696c730000000000604482015290519081900360640190fd5b4133148015610cb8575041600160981b14155b15610ccf5760008281526005602052604090208590555b509197965050505050505056fe6174746573746174696f6e207265717565737420646f6573206e6f7420657869737470726f76655472616e73616374696f6e207265717565737420746f6f206561726c79a264697066735822122016983eba01c6b30031065f4f67d4be5cac829f22098fcc25e45ea3910735ef3f64736f6c63430007060033",
    "sourcePath": "/home/my-usern/songbird/src/stateco/StateConnector.sol",
    "compiler": {
        "name": "solc",
        "version": "0.7.6+commit.7338295f"
    },
    "functionHashes": {
        "attestationRequestNumber()": "091e1266",
        "attestationRequests(uint256)": "c783b39f",
        "getAttestation(uint256)": "29be4db2",
        "latestAttestationRequestFulfilled(address)": "1cf5bb62",
        "latestBlockHeightFulfilled(address)": "b8f5efde",
        "proveTransaction(uint64,uint64,bytes32,uint16,bytes32,uint256)": "f603586a",
        "reconstructTransactionProof(uint64,uint64,bytes32,uint16,bytes32,bytes32,uint256)": "74d86784",
        "requestAttestations(uint64,uint64,bytes32,uint16,bytes32)": "0695ef28",
        "submitAttestations(uint256,uint256)": "c1100f3b"
    },
    "gasEstimates": {
        "creation": {
            "codeDepositCost": "682800",
            "executionCost": "715",
            "totalCost": "683515"
        },
        "external": {
            "attestationRequestNumber()": "1021",
            "attestationRequests(uint256)": "2014",
            "getAttestation(uint256)": "1309",
            "latestAttestationRequestFulfilled(address)": "1169",
            "latestBlockHeightFulfilled(address)": "1146",
            "proveTransaction(uint64,uint64,bytes32,uint16,bytes32,uint256)": "infinite",
            "reconstructTransactionProof(uint64,uint64,bytes32,uint16,bytes32,bytes32,uint256)": "4431",
            "requestAttestations(uint64,uint64,bytes32,uint16,bytes32)": "45598",
            "submitAttestations(uint256,uint256)": "40510"
        }
    }
}